{
  "contractName": "Jiange",
  "abi": [
    {
      "constant": true,
      "inputs": [],
      "name": "worshipVal",
      "outputs": [
        {
          "name": "",
          "type": "uint256"
        }
      ],
      "payable": false,
      "stateMutability": "view",
      "type": "function"
    },
    {
      "anonymous": false,
      "inputs": [
        {
          "indexed": false,
          "name": "_curval",
          "type": "uint256"
        }
      ],
      "name": "worship",
      "type": "event"
    },
    {
      "anonymous": false,
      "inputs": [],
      "name": "sendMsg",
      "type": "event"
    },
    {
      "constant": true,
      "inputs": [],
      "name": "getCurrentWorship",
      "outputs": [
        {
          "name": "",
          "type": "uint256"
        }
      ],
      "payable": false,
      "stateMutability": "view",
      "type": "function"
    },
    {
      "constant": false,
      "inputs": [],
      "name": "jiangenb",
      "outputs": [
        {
          "name": "",
          "type": "uint256"
        }
      ],
      "payable": false,
      "stateMutability": "nonpayable",
      "type": "function"
    },
    {
      "constant": false,
      "inputs": [],
      "name": "jiangeddw",
      "outputs": [
        {
          "name": "",
          "type": "uint256"
        }
      ],
      "payable": false,
      "stateMutability": "nonpayable",
      "type": "function"
    },
    {
      "constant": false,
      "inputs": [],
      "name": "jiangetql",
      "outputs": [
        {
          "name": "",
          "type": "uint256"
        }
      ],
      "payable": false,
      "stateMutability": "nonpayable",
      "type": "function"
    }
  ],
  "bytecode": "0x608060405234801561001057600080fd5b50610207806100206000396000f3fe608060405234801561001057600080fd5b50600436106100575760003560e01c80631844f57e1461005c5780636423a3b81461007a57806366681fcf14610098578063d462c39d146100b6578063f88dbf9e146100d4575b600080fd5b6100646100f2565b6040518082815260200191505060405180910390f35b610082610103565b6040518082815260200191505060405180910390f35b6100a0610109565b6040518082815260200191505060405180910390f35b6100be61011a565b6040518082815260200191505060405180910390f35b6100dc610123565b6040518082815260200191505060405180910390f35b60006100fe6001610134565b905090565b60005481565b60006101156064610134565b905090565b60008054905090565b600061012f600a610134565b905090565b6000806107d06000548161014457fe5b049050826000808282540192505081905550806107d06000548161016457fe5b0414610197577ff41c639e152a94f861522155e66de56861db854ee33301cbd62d4ea1e3469b3d60405160405180910390a15b7f22cccdc7db15d0107ccf329eaae7cd29b73720ec3308a85d367a7a63e0d5d42e6000546040518082815260200191505060405180910390a160005491505091905056fea165627a7a723058201fa7831d812d4e6786be4d91aaa51dd5ddf1773729ec42fbcf41dd3d6ea99e060029",
  "source": "pragma solidity ^0.5.0;\ncontract Jiange {\n    uint public worshipVal;\n    uint constant threshold = 2000;\n    event worship(uint _curval);\n    event sendMsg();\n    function addWorshipVal(uint addVal) private returns (uint curVal) {\n        uint cur = worshipVal / threshold;\n        worshipVal += addVal;\n        if(worshipVal / threshold != cur) {\n            emit sendMsg();\n        }\n        emit worship(worshipVal);\n        return worshipVal;\n    }\n    function getCurrentWorship() public view returns (uint) {\n        return worshipVal;\n    }\n    function jiangenb() public returns (uint) {\n        return addWorshipVal(1);\n    }\n    function jiangeddw() public returns (uint) {\n        return addWorshipVal(10);\n    }\n    function jiangetql() public returns (uint) {\n        return addWorshipVal(100);\n    }\n}",
  "sourcePath": "/home/felinae/Documents/jiangeNB/contracts/Jiange.sol",
  "compiler": {
    "name": "solc",
    "version": "0.5.8+commit.23d335f2.Emscripten.clang"
  },
  "schemaVersion": "3.0.11",
  "updatedAt": "2020-01-13T09:45:39.423Z",
  "devdoc": {
    "methods": {}
  },
  "userdoc": {
    "methods": {}
  }
}